:100000000C948A000C9484030C94A7000C94A70011
:100010000C94A7000C94A7000C94A7000C94A700C4
:100020000C94A7000C94A7000C94A7000C94A700B4
:100030000C94A7000C94A7000C94A7000C94A700A4
:100040000C94A7000C94A7000C94A7000C94A70094
:100050000C94A7000C94A7000C94A7000C94A70084
:100060000C94A7000C94A7001201010100000008E5
:10007000100801E50601010200010403090426033A
:1000800072006500740072006F006E00690063000A
:10009000640065007300690067006E002E00630055
:1000A0006F006D003203530065006700610020009F
:1000B000470065006E006500730069007300200052
:1000C0004A006F0079007000610064002000760033
:1000D00033002E00310005010904A1010901A1002E
:1000E00009300931150026FF0075089502810205C7
:1000F000091901290815002501750195088102C01B
:10010000C01201010100000008100801E50601010C
:100110000200010011241FBECFEFD8E0DEBFCDBF2B
:1001200011E0A0E0B1E0E4E4FBE002C005900D9234
:10013000A633B107D9F711E0A6E3B1E001C01D92E3
:10014000AF38B107E1F70E9429010C94A0050C9487
:10015000000082E190E00895FC018081807641F505
:100160008181863029F583818230D1F0823269F035
:100170008130F1F480913A0190913B0190937401A8
:100180008093730180913C01089580913701909193
:10019000380190937401809373018091390108951F
:1001A00080E091E0909374018093730182E208955E
:1001B00080E00895DC012DE431E030937401209358
:1001C00073018C918076803209F041C011968C9138
:1001D0001197823081F08A30F1F08130C1F5E091E1
:1001E0003D01F0913E010088F189E02DC901129690
:1001F0006C910995089512969C91892F81508830B1
:1002000030F5892F90E08C5B9E4F90937401809322
:10021000730181E008951296EC911297EE2359F440
:10022000E5E4F1E013968C911397819381E0ED342E
:10023000F807C1F70CC08E2F8150883040F4F0E0F1
:10024000EC5BFE4F13968C91808380E0089580E0F4
:100250000895CDB7DEB72897DEBFCDBF88E0FE0199
:100260003196DF01982F1D929A95E9F7E5E4F1E0C8
:10027000DF011D928A95E9F70E949105FC01909398
:100280003E0180933D018481958190933801809354
:10029000370182818093390180859185009731F003
:1002A00090933B0180933A01868108C088E690E0F4
:1002B00090933B0180933A010E94A90080933C01F6
:1002C000809139018093190184B1807E84B9259A87
:1002D00085B18F6185B93A983B9A88B18C6088B9AD
:1002E00088B18C7F88B9579A5F988AB185608AB93E
:1002F0008AB18A7F8AB985E085BD82E08093B000AB
:1003000087E08093B10084EC8093B30083B7817F52
:1003100083BFE0913D01F0913E010284F385E02D21
:1003200009950E943902789411E0FF24882483946F
:100330005E010894A11CB11C91E0C92ED12C82E071
:10034000982E02C0FF2410E0A8950E9446021123B7
:1003500041F0E0913D01F0913E010484F585E02DEE
:100360000995A89B27C085BA40913D0150913E0157
:10037000D50120E030E018C0F901EB5BFE4FE081D1
:10038000EE2379F08C91853018F085508C9309C05C
:10039000EC93C601022E02C0880F991F0A94E2F75F
:1003A000F82A2F5F3F4F1196FA018081918128171B
:1003B000390714F3B99B27C097BAE0913D01F0913A
:1003C0003E010484F585E02D099500E010E012C09F
:1003D0000684F785E02D802F8F5F0995882341F0F3
:1003E000C601002E02C0880F991F0A94E2F7F82A6E
:1003F0000F5F1F4FE0913D01F0913E01808191819F
:10040000081719072CF3FF2009F49DCF00E010E036
:10041000EF2CFF2424C0C701002E02C095958795BC
:100420000A94E2F780FF19C08091640184FF15C02F
:10043000602F6F5F0088F189E02D8FE391E00995CF
:10044000682F8FE391E00E94490303C00E94460297
:10045000A8958091640184FFF9CF0F5F1F4FE09151
:100460003D01F0913E0180819181081719079CF2AE
:1004700069CFE9E6F0E0808182608083E89A8BE4CE
:10048000809365018AE58093640108951F93CF935B
:10049000DF9390917501935097FD9FC02091720159
:1004A000809171018D3209F096C0983009F093C0A7
:1004B000CCE0D0E0C21BD109C758DE4F83EC80935B
:1004C00059018AE580932201109253018881807638
:1004D00029F0CE010E94DA00282F74C09A81109270
:1004E00062018981882321F41092630122E064C0B3
:1004F000853019F4909376015EC0863009F047C0CC
:100500008B818130C9F1823031F4CE010E94AC0080
:10051000282F80E039C0833011F58A81882349F47F
:100520008AE790E0909374018093730180E424E063
:100530002BC0813049F48EE790E090937401809352
:10054000730180E426E220C08230E1F484EA90E086
:10055000909374018093730180E422E315C081328B
:1005600049F488E491E0909374018093730180E4EE
:1005700029E00AC0823231F4CE010E94AC00282F5B
:1005800080E402C080E420E0809353011BC08830E7
:1005900021F421E088E791E011C0893019F49093AB
:1005A000780109C08A3011F421E006C08B3019F4BB
:1005B0008BE48093650120E082E691E090937401E2
:1005C000809373018F81882321F48E81821708F430
:1005D000282F20932301109275018091220184FF1E
:1005E0004AC0809123018F3F09F445C0182F8930FC
:1005F00008F018E0811B809323018091590198E84D
:10060000892780935901112341F120917301309181
:1006100074018091530186FF0DC0AAE5B1E080E02E
:1006200090E0F901E80FF91FE491ED930196181796
:10063000C1F708C0912FD901EAE5F1E08D918193CE
:100640009150E1F71150812F90E01F5F0196820FCA
:10065000931F90937401809373018AE591E0612F59
:100660000E948003612F6C5F6C3019F08FEF8093D4
:1006700023016093220194E189B1857031F4915096
:10068000D9F71092760110927001DF91CF911F91EE
:1006900008951F93DC01162F8091640184FF07C029
:1006A0008091650198E889278093650103C08AE5F8
:1006B00080936401912FE6E6F1E08D918193915052
:1006C000E1F786E691E0612F0E9480031C5F1093A2
:1006D00064011F910895A82FB92F80E090E041E0B8
:1006E00050EA609530E009C02D9182279795879553
:1006F00010F084279527305EC8F36F5FA8F3089544
:10070000EADF8D939D930895CF93CFB7CF93C39591
:10071000489BE9F7489B09C0489B07C0489B05C018
:10072000489B03C0489B01C0A3C0DF93C0917201E6
:10073000DD27C758DE4F489B02C0DF91EBCF2F93D8
:100740000F931F9309B12FEF00FB20F94F933F93B5
:1007500019B14FEF012700FB21F93BE031C04E7F7B
:10076000012F19B1216028C0102F4D7F2260000099
:1007700009B129C04B7F2460012F000019B12BC0A3
:1007800019B1477F28602AC04F7E09B120612CC073
:100790004F7D19B120622FC04F7B09B1206432C058
:1007A000422709B149934FEF0000102710FB20F9B1
:1007B00019B11570C9F1297F91F2012700FB21F9C8
:1007C00009B1237F89F2315058F1102710FB22F92B
:1007D00019B1277E79F2012700FB23F92F7C81F2E2
:1007E00009B1102710FB24F92F7971F200C019B15B
:1007F000012700FB25F92F7359F200C009B110271A
:1008000010FB26F9223040F200C019B1012700FB8D
:1008100027F9243028F64F77206819B10000F9CF66
:1008200011E01CBB002719C03B503195C31BD040C1
:1008300011E01CBB0881033CF9F00B34E9F0209176
:1008400070011981110F1213EDCF4A81441F09362F
:1008500041F10D3211F0013E29F7009377013F91EC
:100860004F911F910F912F91DF91CCB3C0FD4FCFCE
:10087000CF91CFBFCF91189520917701222379F3A3
:1008800010917501112369F534306AF130937501C7
:1008900020937101109172013BE0311B3093720182
:1008A00022C0009175010130E4F40AE54F7049F46B
:1008B0003091220134FD19C000932201C9E5D1E035
:1008C00018C03091640134FD10C000936401C5E686
:1008D000D1E00FC02795A8F45150A9F4220F0000D1
:1008E000F9CF4AE503C042ED01C0432FC4E1D0E097
:1008F00032E01AB11560589A1AB90BB120E415E02C
:100900005F93012756E00BB9279520F4515021F44D
:10091000220FF9CF012756E000003B5A0BB9D0F265
:10092000279528F4515029F4220F0000F9CF012710
:1009300056E027950BB920F4515021F4220FF9CF3E
:10094000012756E0299133230BB921F60A7F109134
:100950007601110FC651D0400BB911F01093700100
:1009600011E01CBB01601AB11A7F402F4A7F5F91D2
:1009700000C000C00BB91AB94BB971CF84B1807EE9
:1009800084B9259A85B18F6185B93A983B9A88B127
:100990008C6088B988B18C7F88B9579A5F9880E05D
:1009A00008954091540150915501E091560160E045
:1009B00070E0F8EC2D9A8F2F8A95F1F7611571058B
:1009C00079F483B126B1422F50E04470507033E087
:1009D000440F551F3A95E1F790E08F71907009C070
:1009E0006230710541F483B190E08F709070982F60
:1009F0008827482B592B2D988F2F8A95F1F7611551
:100A00007105B1F423B186B190E084709070B5E0C7
:100A1000880F991FBA95E1F730E020713070220FEE
:100A2000331F220F331F822B932B482B592B05C0CA
:100A30006130710511F4E3B1EF706F5F7F4F643087
:100A4000710509F0B7CF5093550140935401E093DD
:100A50005601089540E02091540130915501809154
:100A60005701909158012817390709F041E0842F68
:100A70000895FC01009709F44AC020915401309177
:100A800055012095309523FD03C040E850E002C099
:100A90004FEF50E022FF02C040E050E021FD03C0D4
:100AA00080E890E002C08FEF90E020FF02C080E07D
:100AB00090E040838183128226FF02C081E082831E
:100AC00024FF03C082818260828325FF03C082816C
:100AD0008460828327FF03C0828188608283809143
:100AE00056018823A1F432FF03C082818061828392
:100AF00031FF03C082818062828330FF03C0828124
:100B00008064828333FF03C0828180688283809106
:100B1000540190915501909358018093570183E0BF
:100B2000089586ED90E0909329018093280181E05B
:100B300091E090932D0180932C0184E291E008953F
:040B4000F894FFCF57
:100B4400090222000101000032090400000103002F
:100B5400000009211001210122000007058103087A
:100B6400000A5AFF01002B00000012000000BE041E
:060B7400D1042A05390539
:1078000071C00000A4C0000088C0000086C0000055
:1078100084C0000082C0000080C000007EC0000064
:107820007CC000007AC0000078C0000076C0000074
:1078300074C0000072C0000070C000006EC0000084
:107840006CC000006AC0000068C0000066C0000094
:1078500064C0000062C0000060C000005EC00000A4
:107860005CC000005AC000000403090412036F004A
:1078700062006400650076002E0061007400100351
:1078800048004900440042006F006F00740012017C
:10789000100100000008C016DF0500010102000110
:1078A00009022200010100803209040000010300E6
:1078B00000000921010100012221000705810308C0
:1078C00000C80600FF0901A101150026FF00750888
:1078D000850195060900B20201850295830900B26F
:1078E0000201C00011241FBECFEFD8E0DEBFCDBF24
:1078F00011E0A0E0B1E0EEEFFEE702C005900D92CE
:10790000AA30B107D9F711E0AAE0B1E001C01D9299
:10791000AB33B107E1F74CD1F0C272CFA82FB92F2A
:1079200080E090E041E050EA609530E009C02D91A0
:1079300082279795879510F084279527305EC8F3A6
:107940006F5FA8F30895EADF8D939D930895CF9319
:10795000CFB7CF93C395489BE9F7489B09C0489B95
:1079600007C0489B05C0489B03C0489B01C0A3C0FB
:10797000DF93C0911E01DD27CB5DDE4F489B02C027
:10798000DF91EBCF2F930F931F9309B12FEF00FBE4
:1079900020F94F933F9319B14FEF012700FB21F9D5
:1079A0003BE031C04E7F012F19B1216028C0102F5C
:1079B0004D7F2260000009B129C04B7F2460012F58
:1079C000000019B12BC019B1477F28602AC04F7E33
:1079D00009B120612CC04F7D19B120622FC04F7BAF
:1079E00009B1206432C0422709B149934FEF00002A
:1079F000102710FB20F919B11570C9F1297F91F2F8
:107A0000012700FB21F909B1237F89F2315058F198
:107A1000102710FB22F919B1277E79F2012700FB0C
:107A200023F92F7C81F209B1102710FB24F92F795B
:107A300071F200C019B1012700FB25F92F7359F22B
:107A400000C009B1102710FB26F9223040F200C017
:107A500019B1012700FB27F9243028F64F77206859
:107A600019B10000F9CF11E01CBB002719C03B5031
:107A70003195C31BD04011E01CBB0881033CF9F0D9
:107A80000B34E9F020911C011981110F1213EDCF75
:107A90004A81441F093641F10D3211F0013E29F7A8
:107AA000009323013F914F911F910F912F91DF91EF
:107AB000CCB3C0FD4FCFCF91CFBFCF9118952091C0
:107AC0002301222379F310912101112321F5343070
:107AD00022F13093210120931D0110911E013BE002
:107AE000311B30931E0119C00091210101309CF41B
:107AF0000AE54F7081F43091000134FD10C000930D
:107B00000001C1E1D1E00FC02795A8F45150A9F4BC
:107B1000220F0000F9CF4AE503C042ED01C0432F18
:107B2000C4E1D0E032E01AB11560589A1AB90BB12D
:107B300020E415E05F93012756E00BB9279520F468
:107B4000515021F4220FF9CF012756E000003B5A93
:107B50000BB9D0F2279528F4515029F4220F0000D8
:107B6000F9CF012756E027950BB920F4515021F4A5
:107B7000220FF9CF012756E0299133230BB921F6C3
:107B80000A7F10912201110FC651D0400BB911F09C
:107B900010931C0111E01CBB01601AB11A7F402F29
:107BA0004A7F5F9100C000C00BB91AB94BB97ACFB8
:107BB000579A5F982C9A88E28A95F1F71C998BC1A5
:107BC00081E085BF82E085BF8091690083608093FA
:107BD0006900E89A509A20E0A89588EB9BE001970D
:107BE000F1F72150C9F750987894FF2400E0A89548
:107BF00090912101392F335037FD19C180911E0119
:107C0000ACE0B0E0A81BB109AB5DBE4F80911D0197
:107C10008D3209F0BDC0383009F007C183EC809384
:107C200011018AE58093000110920A012C91822FA4
:107C3000807611969C9111978823E1F0993079F420
:107C400012968C911297823031F410920D0127FD1B
:107C50008CC09FEF8CC081E080930E014CC19130AD
:107C600009F049C182E091E09093200180931F01C7
:107C700027E081C012968C91129710921A019923D5
:107C800031F410921B018AE191E022E069C0953045
:107C900019F48093220161C0963009F04EC013960A
:107CA0008C911397813019F48EE898E71DC08230CB
:107CB00041F480EA98E79093200180931F0122E22B
:107CC00038C0833009F512968C911297882341F4BD
:107CD00088E698E79093200180931F0124E029C053
:107CE000813041F48CE698E79093200180931F0146
:107CF00022E11FC08230E1F48EE798E790932001E3
:107D000080931F0120E115C0813241F482EB98E796
:107D10009093200180931F0129E00BC0823241F42F
:107D200082EC98E79093200180931F0121E201C02B
:107D300020E080E480930A011EC0983019F484E2A8
:107D400091E009C0993019F48093240106C09A305B
:107D500021F48AE191E021E003C08AE191E020E092
:107D60009093200180931F0106C016969C9180E895
:107D700080930A010AC017968C911797882321F4E3
:107D800016969C91921708F0922F909301014DC086
:107D900080910A0187FF49C0C0910B01D0910C016D
:107DA00080910D01882349F41196CC911197129678
:107DB000DC9112971496392F3750632F680F609318
:107DC0000D01AE014F7751F4F89483E0FE018093EA
:107DD0005700E895789407B600FCFDCFF894AE0103
:107DE0008D919C91119721E0FE010C012093570089
:107DF000E895112478942296FE01EF7751F4F894D7
:107E000085E0FA0180935700E895789407B600FC66
:107E1000FDCF325011F01296D4CFD0930C01C09305
:107E20000B0167FF02C010920101109221018091A5
:107E3000000184FF3CC0809101018F3FC1F1182FE8
:107E4000893008F018E0811B8093010180911101B5
:107E500098E88927809311011123E1F0E0911F0137
:107E6000F091200180910A0186FF09C0912FA2E1C3
:107E7000B1E084918D9331969150D9F707C0912F3D
:107E8000A2E1B1E081918D939150E1F7F09320014F
:107E9000E0931F0182E191E0612F55DD612F6C5F5E
:107EA0006C3019F08FEF809301016093000194E131
:107EB00089B1857031F49150D9F710922201109256
:107EC0001C0180910E01882321F0FA9411F40150D5
:107ED00011F01C9B8CCEF89481E180935700E895BB
:107EE0001DBA1092690081E085BF15BEE0910F01B7
:107EF000F0911001099520E03ECFF894FFCF5AFF92
:087F0000018000008000000078
:00000001FF
