:100000000C948F000C94F3030C94AC000C94AC0093
:100010000C94AC000C94AC000C94AC000C94AC00B0
:100020000C94AC000C94AC000C94AC000C94AC00A0
:100030000C94AC000C94AC000C94AC000C94AC0090
:100040000C94AC000C94AC000C94AC000C94AC0080
:100050000C94AC000C94AC000C94AC000C94AC0070
:100060000C94AC000C94AC001201010100000008DB
:10007000100801E506010102000105010905A101C1
:10008000A100050109300931150026FF007508950A
:10009000028102050919012903150025019508753A
:1000A000018102C0C0120101010000000810080116
:1000B000E50601010200010403090426037200653C
:1000C00000740072006F006E0069006300640065D8
:1000D000007300690067006E002E0063006F006D02
:1000E000003C03410074006100720069002000437D
:1000F0000036003400200041006D00690067006197
:100100000020004A006F00790073007400690063EA
:10011000006B002000760033002E00310000112417
:100120001FBECFEFD8E0DEBFCDBF11E0A0E0B1E051
:10013000EEE5FAE002C005900D92A633B107D9F7BB
:1001400011E0A6E3B1E001C01D92AC38B107E1F7C0
:100150000E942E010C942D050C94000082E190E089
:100160000895FC018081807641F58181863029F5F2
:1001700083818230D1F0823269F08130F1F4809154
:100180003A0190913B0190937101809370018091AD
:100190003C0108958091370190913801909371014D
:1001A0008093700180913901089580E091E09093EF
:1001B00071018093700182E2089580E00895DC016E
:1001C0002DE431E030937101209370018C918076A1
:1001D000803209F041C011968C911197823081F0E4
:1001E0008A30F1F08130C1F5E0913D01F0913E019E
:1001F0000088F189E02DC90112966C910995089546
:1002000012969C91892F8150883030F5892F90E08B
:100210008C5B9E4F909371018093700181E00895F3
:100220001296EC911297EE2359F4E5E4F1E013965F
:100230008C911397819381E0ED34F807C1F70CC0DE
:100240008E2F8150883040F4F0E0EC5BFE4F139627
:100250008C91808380E0089580E00895CDB7DEB76B
:100260002897DEBFCDBF88E0FE013196DF01982FD1
:100270001D929A95E9F7E5E4F1E0DF011D928A9578
:10028000E9F70E949902FC0190933E0180933D01A1
:100290008481958190933801809337018281809386
:1002A000390180859185009731F090933B018093CF
:1002B0003A01868108C088E690E090933B018093E4
:1002C0003A010E94AE0080933C01809139018093F5
:1002D000190184B1807E84B9259A579A85B18F63BC
:1002E00085B95F9887B1807F87B988B18F6088B9F9
:1002F0008AB185608AB98AB18A7F8AB985E085BD6D
:1003000082E08093B00087E08093B10084EC80931A
:10031000B30083B7817F83BFE0913D01F0913E013F
:100320000284F385E02D09950E94A802789411E0DB
:10033000FF24882483945E010894A11CB11C91E0E1
:10034000C92ED12C82E0982E02C0FF2410E0A8957F
:100350000E94B502112341F0E0913D01F0913E0170
:100360000484F585E02D0995A89B27C085BA4091A6
:100370003D0150913E01D50120E030E018C0F90167
:10038000EB5BFE4FE081EE2379F08C91853018F025
:1003900085508C9309C0EC93C601022E02C0880FD1
:1003A000991F0A94E2F7F82A2F5F3F4F1196FA013E
:1003B000808191812817390714F3B99B27C097BA18
:1003C000E0913D01F0913E010484F585E02D099511
:1003D00000E010E012C00684F785E02D802F8F5FCB
:1003E0000995882341F0C601002E02C0880F991F8D
:1003F0000A94E2F7F82A0F5F1F4FE0913D01F09158
:100400003E0180819181081719072CF3FF2009F420
:100410009DCF00E010E0EF2CFF2424C0C701002E88
:1004200002C0959587950A94E2F780FF19C08091E4
:10043000610184FF15C0602F6F5F0088F189E02D96
:100440008FE391E00995682F8FE391E00E94B80354
:1004500003C00E94B502A8958091610184FFF9CF85
:100460000F5F1F4FE0913D01F0913E01808191812E
:10047000081719079CF269CF84B1807E84B9259A48
:10048000579A85B18F6385B95F9887B1807F87B9A7
:1004900088B18F6088B980E0089523B186B190E07B
:1004A0008C70907033E0880F991F3A95E1F72F71A7
:1004B000282B20935301089520E0909153018091BF
:1004C0005401981321E0822F0895FC01009759F1FF
:1004D000809153018095482F43FD03C020E830E010
:1004E00002C02FEF30E042FF02C020E030E041FDCB
:1004F00003C080E890E002C08FEF90E040FF02C0B0
:1005000080E090E020838183128244FF02C081E07A
:10051000828345FF03C082818260828346FF03C0DD
:10052000828184608283809153018093540183E0AF
:1005300008958AE790E0909327018093260185EA49
:1005400090E090932B0180932A0182E291E008953C
:10055000E9E6F0E0808182608083E89A8BE4809312
:1005600062018AE58093610108951F93CF93DF9321
:1005700090917201935097FD9FC020916F018091DF
:100580006E018D3209F096C0983009F093C0CCE02E
:10059000D0E0C21BD109CA58DE4F83EC80935601CC
:1005A0008AE580933401109255018881807629F084
:1005B000CE010E94DF00282F74C09A8110925F0143
:1005C0008981882321F41092600122E064C0853083
:1005D00019F4909373015EC0863009F047C08B8197
:1005E0008130C9F1823031F4CE010E94B100282F50
:1005F00080E039C0833011F58A81882349F487EB84
:1006000090E0909371018093700180E424E02BC00E
:10061000813049F48BEB90E09093710180937001ED
:1006200080E426E220C08230E1F481EE90E09093F5
:1006300071018093700180E42CE315C0813249F48C
:1006400088E491E0909371018093700180E429E047
:100650000AC0823231F4CE010E94B100282F80E41A
:1006600002C080E420E0809355011BC0883021F453
:1006700021E085E791E011C0893019F4909375016C
:1006800009C08A3011F421E006C08B3019F48BE4E4
:100690008093620120E08FE591E090937101809357
:1006A00070018F81882321F48E81821708F4282F0E
:1006B00020933501109272018091340184FF4AC069
:1006C000809135018F3F09F445C0182F893008F01B
:1006D00018E0811B809335018091560198E88927A5
:1006E00080935601112341F12091700130917101E5
:1006F0008091550186FF0DC0A7E5B1E080E090E054
:10070000F901E80FF91FE491ED9301961817C1F76D
:1007100008C0912FD901E7E5F1E08D9181939150C7
:10072000E1F71150812F90E01F5F0196820F931F18
:10073000909371018093700187E591E0612F0E9491
:10074000EF03612F6C5F6C3019F08FEF80933501F0
:100750006093340194E189B1857031F49150D9F7F7
:100760001092730110926D01DF91CF911F91089546
:100770001F93DC01162F8091610184FF07C08091D7
:10078000620198E889278093620103C08AE580931B
:100790006101912FE3E6F1E08D9181939150E1F7B2
:1007A00083E691E0612F0E94EF031C5F10936101CB
:1007B0001F910895A82FB92F80E090E041E050EA02
:1007C000609530E009C02D9182279795879510F0AC
:1007D00084279527305EC8F36F5FA8F30895EADF9A
:1007E0008D939D930895CF93CFB7CF93C395489B97
:1007F000E9F7489B09C0489B07C0489B05C0489B38
:1008000003C0489B01C0A3C0DF93C0916F01DD27E7
:10081000CA58DE4F489B02C0DF91EBCF2F930F9356
:100820001F9309B12FEF00FB20F94F933F9319B1AC
:100830004FEF012700FB21F93BE031C04E7F012F34
:1008400019B1216028C0102F4D7F2260000009B12E
:1008500029C04B7F2460012F000019B12BC019B1B2
:10086000477F28602AC04F7E09B120612CC04F7D90
:1008700019B120622FC04F7B09B1206432C04227DA
:1008800009B149934FEF0000102710FB20F919B16F
:100890001570C9F1297F91F2012700FB21F909B1F7
:1008A000237F89F2315058F1102710FB22F919B13A
:1008B000277E79F2012700FB23F92F7C81F209B111
:1008C000102710FB24F92F7971F200C019B101270C
:1008D00000FB25F92F7359F200C009B1102710FB56
:1008E00026F9223040F200C019B1012700FB27F998
:1008F000243028F64F77206819B10000F9CF11E0B5
:100900001CBB002719C03B503195C31BD04011E0E0
:100910001CBB0881033CF9F00B34E9F020916D0118
:100920001981110F1213EDCF4A81441F093641F18D
:100930000D3211F0013E29F7009374013F914F9160
:100940001F910F912F91DF91CCB3C0FD4FCFCF916D
:10095000CFBFCF91189520917401222379F3109184
:100960007201112369F534306AF1309372012093DA
:100970006E0110916F013BE0311B30936F0122C07B
:10098000009172010130E4F40AE54F7049F43091AE
:10099000340134FD19C000933401C6E5D1E018C01C
:1009A0003091610134FD10C000936101C2E6D1E0D5
:1009B0000FC02795A8F45150A9F4220F0000F9CFD9
:1009C0004AE503C042ED01C0432FC4E1D0E032E06C
:1009D0001AB11560589A1AB90BB120E415E05F936B
:1009E000012756E00BB9279520F4515021F4220F2E
:1009F000F9CF012756E000003B5A0BB9D0F22795FA
:100A000028F4515029F4220F0000F9CF012756E0B5
:100A100027950BB920F4515021F4220FF9CF01276B
:100A200056E0299133230BB921F60A7F1091730107
:100A3000110FC651D0400BB911F010936D0111E0A8
:100A40001CBB01601AB11A7F402F4A7F5F9100C022
:0E0A500000C00BB91AB94BB971CFF894FFCFA3
:100A5E000902220001010000320904000001030016
:100A6E000000092110012101220000070581030861
:100A7E00000A01002B000000120000003C024D0293
:060A8E005C0265025AFF44
:1078000071C00000A4C0000088C0000086C0000055
:1078100084C0000082C0000080C000007EC0000064
:107820007CC000007AC0000078C0000076C0000074
:1078300074C0000072C0000070C000006EC0000084
:107840006CC000006AC0000068C0000066C0000094
:1078500064C0000062C0000060C000005EC00000A4
:107860005CC000005AC000000403090412036F004A
:1078700062006400650076002E0061007400100351
:1078800048004900440042006F006F00740012017C
:10789000100100000008C016DF0500010102000110
:1078A00009022200010100803209040000010300E6
:1078B00000000921010100012221000705810308C0
:1078C00000C80600FF0901A101150026FF00750888
:1078D000850195060900B20201850295830900B26F
:1078E0000201C00011241FBECFEFD8E0DEBFCDBF24
:1078F00011E0A0E0B1E0EEEFFEE702C005900D92CE
:10790000AA30B107D9F711E0AAE0B1E001C01D9299
:10791000AB33B107E1F74CD1F0C272CFA82FB92F2A
:1079200080E090E041E050EA609530E009C02D91A0
:1079300082279795879510F084279527305EC8F3A6
:107940006F5FA8F30895EADF8D939D930895CF9319
:10795000CFB7CF93C395489BE9F7489B09C0489B95
:1079600007C0489B05C0489B03C0489B01C0A3C0FB
:10797000DF93C0911E01DD27CB5DDE4F489B02C027
:10798000DF91EBCF2F930F931F9309B12FEF00FBE4
:1079900020F94F933F9319B14FEF012700FB21F9D5
:1079A0003BE031C04E7F012F19B1216028C0102F5C
:1079B0004D7F2260000009B129C04B7F2460012F58
:1079C000000019B12BC019B1477F28602AC04F7E33
:1079D00009B120612CC04F7D19B120622FC04F7BAF
:1079E00009B1206432C0422709B149934FEF00002A
:1079F000102710FB20F919B11570C9F1297F91F2F8
:107A0000012700FB21F909B1237F89F2315058F198
:107A1000102710FB22F919B1277E79F2012700FB0C
:107A200023F92F7C81F209B1102710FB24F92F795B
:107A300071F200C019B1012700FB25F92F7359F22B
:107A400000C009B1102710FB26F9223040F200C017
:107A500019B1012700FB27F9243028F64F77206859
:107A600019B10000F9CF11E01CBB002719C03B5031
:107A70003195C31BD04011E01CBB0881033CF9F0D9
:107A80000B34E9F020911C011981110F1213EDCF75
:107A90004A81441F093641F10D3211F0013E29F7A8
:107AA000009323013F914F911F910F912F91DF91EF
:107AB000CCB3C0FD4FCFCF91CFBFCF9118952091C0
:107AC0002301222379F310912101112321F5343070
:107AD00022F13093210120931D0110911E013BE002
:107AE000311B30931E0119C00091210101309CF41B
:107AF0000AE54F7081F43091000134FD10C000930D
:107B00000001C1E1D1E00FC02795A8F45150A9F4BC
:107B1000220F0000F9CF4AE503C042ED01C0432F18
:107B2000C4E1D0E032E01AB11560589A1AB90BB12D
:107B300020E415E05F93012756E00BB9279520F468
:107B4000515021F4220FF9CF012756E000003B5A93
:107B50000BB9D0F2279528F4515029F4220F0000D8
:107B6000F9CF012756E027950BB920F4515021F4A5
:107B7000220FF9CF012756E0299133230BB921F6C3
:107B80000A7F10912201110FC651D0400BB911F09C
:107B900010931C0111E01CBB01601AB11A7F402F29
:107BA0004A7F5F9100C000C00BB91AB94BB97ACFB8
:107BB000579A5F982C9A88E28A95F1F71C998BC1A5
:107BC00081E085BF82E085BF8091690083608093FA
:107BD0006900E89A509A20E0A89588EB9BE001970D
:107BE000F1F72150C9F750987894FF2400E0A89548
:107BF00090912101392F335037FD19C180911E0119
:107C0000ACE0B0E0A81BB109AB5DBE4F80911D0197
:107C10008D3209F0BDC0383009F007C183EC809384
:107C200011018AE58093000110920A012C91822FA4
:107C3000807611969C9111978823E1F0993079F420
:107C400012968C911297823031F410920D0127FD1B
:107C50008CC09FEF8CC081E080930E014CC19130AD
:107C600009F049C182E091E09093200180931F01C7
:107C700027E081C012968C91129710921A019923D5
:107C800031F410921B018AE191E022E069C0953045
:107C900019F48093220161C0963009F04EC013960A
:107CA0008C911397813019F48EE898E71DC08230CB
:107CB00041F480EA98E79093200180931F0122E22B
:107CC00038C0833009F512968C911297882341F4BD
:107CD00088E698E79093200180931F0124E029C053
:107CE000813041F48CE698E79093200180931F0146
:107CF00022E11FC08230E1F48EE798E790932001E3
:107D000080931F0120E115C0813241F482EB98E796
:107D10009093200180931F0129E00BC0823241F42F
:107D200082EC98E79093200180931F0121E201C02B
:107D300020E080E480930A011EC0983019F484E2A8
:107D400091E009C0993019F48093240106C09A305B
:107D500021F48AE191E021E003C08AE191E020E092
:107D60009093200180931F0106C016969C9180E895
:107D700080930A010AC017968C911797882321F4E3
:107D800016969C91921708F0922F909301014DC086
:107D900080910A0187FF49C0C0910B01D0910C016D
:107DA00080910D01882349F41196CC911197129678
:107DB000DC9112971496392F3750632F680F609318
:107DC0000D01AE014F7751F4F89483E0FE018093EA
:107DD0005700E895789407B600FCFDCFF894AE0103
:107DE0008D919C91119721E0FE010C012093570089
:107DF000E895112478942296FE01EF7751F4F894D7
:107E000085E0FA0180935700E895789407B600FC66
:107E1000FDCF325011F01296D4CFD0930C01C09305
:107E20000B0167FF02C010920101109221018091A5
:107E3000000184FF3CC0809101018F3FC1F1182FE8
:107E4000893008F018E0811B8093010180911101B5
:107E500098E88927809311011123E1F0E0911F0137
:107E6000F091200180910A0186FF09C0912FA2E1C3
:107E7000B1E084918D9331969150D9F707C0912F3D
:107E8000A2E1B1E081918D939150E1F7F09320014F
:107E9000E0931F0182E191E0612F55DD612F6C5F5E
:107EA0006C3019F08FEF809301016093000194E131
:107EB00089B1857031F49150D9F710922201109256
:107EC0001C0180910E01882321F0FA9411F40150D5
:107ED00011F01C9B8CCEF89481E180935700E895BB
:107EE0001DBA1092690081E085BF15BEE0910F01B7
:107EF000F0911001099520E03ECFF894FFCF5AFF92
:087F0000018000008000000078
:00000001FF
