:100000000C9488000C9486030C94A5000C94A50015
:100010000C94A5000C94A5000C94A5000C94A500CC
:100020000C94A5000C94A5000C94A5000C94A500BC
:100030000C94A5000C94A5000C94A5000C94A500AC
:100040000C94A5000C94A5000C94A5000C94A5009C
:100050000C94A5000C94A5000C94A5000C94A5008C
:100060000C94A5000C94A5001201010100000008E9
:10007000100801E50601010200010403090426033A
:1000800072006500740072006F006E00690063000A
:10009000640065007300690067006E002E00630055
:1000A0006F006D002E034100740061007200690052
:1000B000200043003600340020005000610064003E
:1000C00064006C00650073002000760033002E0091
:1000D000310005010905A101A1000501093009311F
:1000E000150026FF007508950281020509190129EE
:1000F0000215002501950875018102C0C012010199
:100100000100000008100801E506010102000100DD
:1001100011241FBECFEFD8E0DEBFCDBF11E0A0E0BD
:10012000B1E0E6E9FBE002C005900D92A633B1070D
:10013000D9F711E0A6E3B1E001C01D92A03AB107E2
:10014000E1F70E9427010C94C9050C94000082E19C
:1001500090E00895FC018081807641F581818630B0
:1001600029F583818230D1F0823269F08130F1F457
:1001700080913A0190913B0190937D0180937C01A5
:1001800080913C01089580913701909138019093BE
:100190007D0180937C0180913901089580E091E098
:1001A00090937D0180937C0182E2089580E0089520
:1001B000DC0123E531E030937D0120937C018C91BB
:1001C0008076803209F041C011968C91119782306F
:1001D00081F08A30F1F08130C1F5E0913D01F0917C
:1001E0003E010088F189E02DC90112966C910995B4
:1001F000089512969C91892F8150883030F5892F6F
:1002000090E0865B9E4F90937D0180937C0181E01E
:1002100008951296EC911297EE2359F4EBE4F1E075
:1002200013968C911397819381E0E335F807C1F71A
:100230000CC08E2F8150883040F4F0E0E65BFE4F1A
:1002400013968C91808380E0089580E00895CDB767
:10025000DEB72897DEBFCDBF88E0FE013196DF0113
:10026000982F1D929A95E9F7EBE4F1E0DF011D92DA
:100270008A95E9F70E94BA05FC0190933E018093AC
:100280003D0184819581909338018093370182816B
:100290008093390180859185009731F090933B01DF
:1002A00080933A01868108C088E690E090933B01F4
:1002B00080933A010E94A70080933C01809139010C
:1002C0008093190184B1837F84B9259A85B18C62AA
:1002D00085B9579A5F9887B1837F87B988B1837F43
:1002E00088B987B18C7F87B988B18C7F88B98AB18A
:1002F00085608AB98AB18A7F8AB985E085BD82E046
:100300008093B00087E08093B10084EC8093B300C9
:1003100083B7817F83BFE0913D01F0913E0102846C
:10032000F385E02D09950E943B02789411E0FF24AB
:10033000882483945E010894A11CB11C91E0C92E0D
:10034000D12C82E0982E02C0FF2410E0A8950E94D4
:100350004802112341F0E0913D01F0913E010484F7
:10036000F585E02D0995A89B27C085BA40913D01F0
:1003700050913E01D50120E030E018C0F901E55B65
:10038000FE4FE081EE2379F08C91853018F0855096
:100390008C9309C0EC93C601022E02C0880F991FEE
:1003A0000A94E2F7F82A2F5F3F4F1196FA018081F5
:1003B00091812817390714F3B99B27C097BAE091A8
:1003C0003D01F0913E010484F585E02D099500E0A2
:1003D00010E012C00684F785E02D802F8F5F09950D
:1003E000882341F0C601002E02C0880F991F0A948D
:1003F000E2F7F82A0F5F1F4FE0913D01F0913E01B7
:1004000080819181081719072CF3FF2009F49DCFF3
:1004100000E010E0EF2CFF2424C0C701002E02C032
:10042000959587950A94E2F780FF19C080916D0138
:1004300084FF15C0602F6F5F0088F189E02D8FE386
:1004400091E00995682F8FE391E00E944B0303C070
:100450000E944802A89580916D0184FFF9CF0F5F3B
:100460001F4FE0913D01F0913E018081918108177D
:1004700019079CF269CFE9E6F0E080818260808311
:10048000E89A8BE480936E018AE580936D0108956C
:100490001F93CF93DF9390917E01935097FD9FC060
:1004A00020917B0180917A018D3209F096C09830BD
:1004B00009F093C0CCE0D0E0C21BD109CE57DE4F8B
:1004C00083EC809362018AE58093220110925F01A0
:1004D0008881807629F0CE010E94D800282F74C030
:1004E0009A8110926B018981882321F410926C010A
:1004F00022E064C0853019F490937F015EC086309D
:1005000009F047C08B818130C9F1823031F4CE01CE
:100510000E94AA00282F80E039C0833011F58A811B
:10052000882349F48AE790E090937D0180937C01D1
:1005300080E424E02BC0813049F48EE790E0909372
:100540007D0180937C0180E426E220C08230E1F4CA
:1005500084EA90E090937D0180937C0180E42EE218
:1005600015C0813249F488E491E090937D01809335
:100570007C0180E429E00AC0823231F4CE010E947D
:10058000AA00282F80E402C080E420E080935F016D
:100590001BC0883021F421E081E891E011C089304E
:1005A00019F49093810109C08A3011F421E006C04A
:1005B0008B3019F48BE480936E0120E08BE691E0A0
:1005C00090937D0180937C018F81882321F48E811B
:1005D000821708F4282F2093230110927E01809126
:1005E000220184FF4AC0809123018F3F09F445C056
:1005F000182F893008F018E0811B80932301809127
:10060000620198E8892780936201112341F12091CA
:100610007C0130917D0180915F0186FF0DC0A3E6D2
:10062000B1E080E090E0F901E80FF91FE491ED936B
:1006300001961817C1F708C0912FD901E3E6F1E040
:100640008D9181939150E1F71150812F90E01F5FC0
:100650000196820F931F90937D0180937C0183E626
:1006600091E0612F0E948203612F6C5F6C3019F062
:100670008FEF809323016093220194E189B185700B
:1006800031F49150D9F710927F0110927901DF91E6
:10069000CF911F9108951F93DC01162F80916D015A
:1006A00084FF07C080916E0198E8892780936E01CE
:1006B00003C08AE580936D01912FEFE6F1E08D9103
:1006C00081939150E1F78FE691E0612F0E948203C0
:1006D0001C5F10936D011F910895A82FB92F80E022
:1006E00090E041E050EA609530E009C02D9182270A
:1006F0009795879510F084279527305EC8F36F5F34
:10070000A8F30895EADF8D939D930895CF93CFB713
:10071000CF93C395489BE9F7489B09C0489B07C006
:10072000489B05C0489B03C0489B01C0A3C0DF9302
:10073000C0917B01DD27CE57DE4F489B02C0DF9181
:10074000EBCF2F930F931F9309B12FEF00FB20F9ED
:100750004F933F9319B14FEF012700FB21F93BE085
:1007600031C04E7F012F19B1216028C0102F4D7F5D
:100770002260000009B129C04B7F2460012F0000D6
:1007800019B12BC019B1477F28602AC04F7E09B12B
:1007900020612CC04F7D19B120622FC04F7B09B161
:1007A000206432C0422709B149934FEF000010275F
:1007B00010FB20F919B11570C9F1297F91F20127B9
:1007C00000FB21F909B1237F89F2315058F110273C
:1007D00010FB22F919B1277E79F2012700FB23F9DA
:1007E0002F7C81F209B1102710FB24F92F7971F2C7
:1007F00000C019B1012700FB25F92F7359F200C081
:1008000009B1102710FB26F9223040F200C019B1BF
:10081000012700FB27F9243028F64F77206819B10B
:100820000000F9CF11E01CBB002719C03B503195E7
:10083000C31BD04011E01CBB0881033CF9F00B3412
:10084000E9F0209179011981110F1213EDCF4A813E
:10085000441F093641F10D3211F0013E29F7009392
:1008600080013F914F911F910F912F91DF91CCB358
:10087000C0FD4FCFCF91CFBFCF9118952091800170
:10088000222379F310917E01112369F534306AF146
:1008900030937E0120937A0110917B013BE0311B64
:1008A00030937B0122C000917E010130E4F40AE51F
:1008B0004F7049F43091220134FD19C00093220198
:1008C000C2E6D1E018C030916D0134FD10C0009334
:1008D0006D01CEE6D1E00FC02795A8F45150A9F4E0
:1008E000220F0000F9CF4AE503C042ED01C0432FBB
:1008F000C4E1D0E032E01AB11560589A1AB90BB1D0
:1009000020E415E05F93012756E00BB9279520F40A
:10091000515021F4220FF9CF012756E000003B5A35
:100920000BB9D0F2279528F4515029F4220F00007A
:10093000F9CF012756E027950BB920F4515021F447
:10094000220FF9CF012756E0299133230BB921F665
:100950000A7F10917F01110FC651D0400BB911F0E1
:100960001093790111E01CBB01601AB11A7F402F6E
:100970004A7F5F9100C000C00BB91AB94BB971CF63
:1009800084B1837F84B9259A85B18C6285B9579AE1
:100990005F9887B1837F87B988B1837F88B987B132
:1009A0008C7F87B988B18C7F88B9E1E8F0E08081DD
:1009B0008360808310929D0110929C0180919C0124
:1009C00090919D01909399018093980110929F01BD
:1009D00010929E0180919E0190919F0190939B01A6
:1009E00080939A01109261011092600180E0089555
:1009F0001F93CF93DF9383B18C708093600110922B
:100A00009F0110929E0180919E0190919F01909371
:100A10009D0180939C0120E030E0C1E0D0E018EC23
:100A2000ABE7B2E087B1BE01022E02C0660F771FAE
:100A30000A94E2F7962F862B87B9812F8A95F1F7D2
:100A400087B19095982397B91092850010928400F1
:100A5000A901440F551FFA01E456FE4F86B190E0FC
:100A600086239723892B39F4809184009091850007
:100A700091838083F3CFFA01E456FE4F8081918108
:100A80008F5F9F4F11F4B183A0832F5F3F4F2230C0
:100A9000310541F6DF91CF911F910895909160014A
:100AA000809161019817C1F42091980130919901CA
:100AB00080919C0190919D012817390769F420913C
:100AC0009A0130919B0180919E0190919F0140E09D
:100AD00050E02817390711F041E050E0842F0895C5
:100AE000FC01009789F180919C0190919D012091DA
:100AF0009E0130919F0165E0369527956A95E1F753
:100B000040916001409555E0969587955A95E1F79B
:100B10008F3F910519F014F08FEF90E0809580835E
:100B2000C9012F3F310519F014F08FEF90E0809547
:100B300081831282942F42FF02C081E0828393FF5F
:100B400003C0828182608283809160018093610111
:100B500080919C0190919D019093990180939801BF
:100B600080919E0190919F0190939B0180939A01A7
:100B700083E0089582ED90E090932901809328010D
:100B80008DEF90E090932D0180932C0184E291E011
:060B90000895F894FFCF68
:100B960009022200010100003209040000010300DD
:100BA6000000092110012101220000070581030828
:100BB600000A5AFF01002B00000012000000C004CA
:060BC600F8044E05700565
:1078000071C00000A4C0000088C0000086C0000055
:1078100084C0000082C0000080C000007EC0000064
:107820007CC000007AC0000078C0000076C0000074
:1078300074C0000072C0000070C000006EC0000084
:107840006CC000006AC0000068C0000066C0000094
:1078500064C0000062C0000060C000005EC00000A4
:107860005CC000005AC000000403090412036F004A
:1078700062006400650076002E0061007400100351
:1078800048004900440042006F006F00740012017C
:10789000100100000008C016DF0500010102000110
:1078A00009022200010100803209040000010300E6
:1078B00000000921010100012221000705810308C0
:1078C00000C80600FF0901A101150026FF00750888
:1078D000850195060900B20201850295830900B26F
:1078E0000201C00011241FBECFEFD8E0DEBFCDBF24
:1078F00011E0A0E0B1E0EEEFFEE702C005900D92CE
:10790000AA30B107D9F711E0AAE0B1E001C01D9299
:10791000AB33B107E1F74CD1F0C272CFA82FB92F2A
:1079200080E090E041E050EA609530E009C02D91A0
:1079300082279795879510F084279527305EC8F3A6
:107940006F5FA8F30895EADF8D939D930895CF9319
:10795000CFB7CF93C395489BE9F7489B09C0489B95
:1079600007C0489B05C0489B03C0489B01C0A3C0FB
:10797000DF93C0911E01DD27CB5DDE4F489B02C027
:10798000DF91EBCF2F930F931F9309B12FEF00FBE4
:1079900020F94F933F9319B14FEF012700FB21F9D5
:1079A0003BE031C04E7F012F19B1216028C0102F5C
:1079B0004D7F2260000009B129C04B7F2460012F58
:1079C000000019B12BC019B1477F28602AC04F7E33
:1079D00009B120612CC04F7D19B120622FC04F7BAF
:1079E00009B1206432C0422709B149934FEF00002A
:1079F000102710FB20F919B11570C9F1297F91F2F8
:107A0000012700FB21F909B1237F89F2315058F198
:107A1000102710FB22F919B1277E79F2012700FB0C
:107A200023F92F7C81F209B1102710FB24F92F795B
:107A300071F200C019B1012700FB25F92F7359F22B
:107A400000C009B1102710FB26F9223040F200C017
:107A500019B1012700FB27F9243028F64F77206859
:107A600019B10000F9CF11E01CBB002719C03B5031
:107A70003195C31BD04011E01CBB0881033CF9F0D9
:107A80000B34E9F020911C011981110F1213EDCF75
:107A90004A81441F093641F10D3211F0013E29F7A8
:107AA000009323013F914F911F910F912F91DF91EF
:107AB000CCB3C0FD4FCFCF91CFBFCF9118952091C0
:107AC0002301222379F310912101112321F5343070
:107AD00022F13093210120931D0110911E013BE002
:107AE000311B30931E0119C00091210101309CF41B
:107AF0000AE54F7081F43091000134FD10C000930D
:107B00000001C1E1D1E00FC02795A8F45150A9F4BC
:107B1000220F0000F9CF4AE503C042ED01C0432F18
:107B2000C4E1D0E032E01AB11560589A1AB90BB12D
:107B300020E415E05F93012756E00BB9279520F468
:107B4000515021F4220FF9CF012756E000003B5A93
:107B50000BB9D0F2279528F4515029F4220F0000D8
:107B6000F9CF012756E027950BB920F4515021F4A5
:107B7000220FF9CF012756E0299133230BB921F6C3
:107B80000A7F10912201110FC651D0400BB911F09C
:107B900010931C0111E01CBB01601AB11A7F402F29
:107BA0004A7F5F9100C000C00BB91AB94BB97ACFB8
:107BB000579A5F982C9A88E28A95F1F71C998BC1A5
:107BC00081E085BF82E085BF8091690083608093FA
:107BD0006900E89A509A20E0A89588EB9BE001970D
:107BE000F1F72150C9F750987894FF2400E0A89548
:107BF00090912101392F335037FD19C180911E0119
:107C0000ACE0B0E0A81BB109AB5DBE4F80911D0197
:107C10008D3209F0BDC0383009F007C183EC809384
:107C200011018AE58093000110920A012C91822FA4
:107C3000807611969C9111978823E1F0993079F420
:107C400012968C911297823031F410920D0127FD1B
:107C50008CC09FEF8CC081E080930E014CC19130AD
:107C600009F049C182E091E09093200180931F01C7
:107C700027E081C012968C91129710921A019923D5
:107C800031F410921B018AE191E022E069C0953045
:107C900019F48093220161C0963009F04EC013960A
:107CA0008C911397813019F48EE898E71DC08230CB
:107CB00041F480EA98E79093200180931F0122E22B
:107CC00038C0833009F512968C911297882341F4BD
:107CD00088E698E79093200180931F0124E029C053
:107CE000813041F48CE698E79093200180931F0146
:107CF00022E11FC08230E1F48EE798E790932001E3
:107D000080931F0120E115C0813241F482EB98E796
:107D10009093200180931F0129E00BC0823241F42F
:107D200082EC98E79093200180931F0121E201C02B
:107D300020E080E480930A011EC0983019F484E2A8
:107D400091E009C0993019F48093240106C09A305B
:107D500021F48AE191E021E003C08AE191E020E092
:107D60009093200180931F0106C016969C9180E895
:107D700080930A010AC017968C911797882321F4E3
:107D800016969C91921708F0922F909301014DC086
:107D900080910A0187FF49C0C0910B01D0910C016D
:107DA00080910D01882349F41196CC911197129678
:107DB000DC9112971496392F3750632F680F609318
:107DC0000D01AE014F7751F4F89483E0FE018093EA
:107DD0005700E895789407B600FCFDCFF894AE0103
:107DE0008D919C91119721E0FE010C012093570089
:107DF000E895112478942296FE01EF7751F4F894D7
:107E000085E0FA0180935700E895789407B600FC66
:107E1000FDCF325011F01296D4CFD0930C01C09305
:107E20000B0167FF02C010920101109221018091A5
:107E3000000184FF3CC0809101018F3FC1F1182FE8
:107E4000893008F018E0811B8093010180911101B5
:107E500098E88927809311011123E1F0E0911F0137
:107E6000F091200180910A0186FF09C0912FA2E1C3
:107E7000B1E084918D9331969150D9F707C0912F3D
:107E8000A2E1B1E081918D939150E1F7F09320014F
:107E9000E0931F0182E191E0612F55DD612F6C5F5E
:107EA0006C3019F08FEF809301016093000194E131
:107EB00089B1857031F49150D9F710922201109256
:107EC0001C0180910E01882321F0FA9411F40150D5
:107ED00011F01C9B8CCEF89481E180935700E895BB
:107EE0001DBA1092690081E085BF15BEE0910F01B7
:107EF000F0911001099520E03ECFF894FFCF5AFF92
:087F0000018000008000000078
:00000001FF
